:100000000C945A000C9477000C9477000C947700B1
:100010000C9477000C9477000C9477000C94770084
:100020000C9477000C9477000C9477000C94770074
:100030000C9477000C9477000C9477000C94770064
:100040000C9477000C9477000C9477000C94770054
:100050000C9477000C9477000C9477000C94770044
:100060000C9477000C9477000C9477000C94770034
:100070000C9477000C9477000C9477000C94770024
:100080000C9477000C9477000C9477000C94770014
:100090000C9477000C9477000C9477000C94770004
:1000A0000C9477000C9477000C9477000C947700F4
:1000B0000C94770011241FBECFEFD8E0DEBFCDBF78
:1000C00012E0A0E0B1E0E4EBFBE202C005900D928B
:1000D000A03CB107D9F723E0A0ECB2E001C01D922B
:1000E000A532B207E1F70E94E30E0C94D8150C94E8
:1000F00000004F925F926F927F928F929F92AF9289
:10010000BF92EF92FF920F931F93CF93DF9300D094
:10011000CDB7DEB74B015C01CA01A90198012401EA
:100120003501480E591E611C711CB3016F71772790
:10013000880D991D8F7799274115E1E35E0710F02F
:100140000E94EF12D701B058A430B10518F0E114A5
:10015000F104B1F7762F6627770FFC01EE0FFF1F32
:10016000EE0FFF1F6E2B7F2BF701E62BF72BF9838A
:100170007E2D7370672B6A834115510549F4E11494
:1001800080E8F806E9F6882D880F8168898324C005
:10019000892B39F4E11480E8F806F1F0E114F10458
:1001A00079F08F2F80648983EF2869F0149798F491
:1001B00082E090E0BE016F5F7F4F0E943D100FC054
:1001C00081E090E002C082E090E0BE016F5F7F4F6F
:1001D0000E940B1004C0FFCF81E090E0EBCF0F90A6
:1001E0000F90DF91CF911F910F91FF90EF90BF90F3
:1001F000AF909F908F907F906F905F904F900895F9
:10020000EF92FF920F931F93E12CE0E8FE2E0E94E5
:1002100079001F910F91FF90EF900895EF92FF9258
:100220000F931F93E12CF12C0E9479001F910F91E5
:10023000FF90EF900895A4E0B0E0E1E2F1E00C94CB
:100240008D129E012F5F3F4F7901890124E030E03C
:100250000E940E01FE01359660E070E0CB01B82FE0
:10026000A72F962F88272291BC01CD01620F711D07
:10027000811D911DEE15FF0591F72496E6E00C9483
:10028000A912A2E0B0E0E7E4F1E00C948F128E0135
:100290000F5F1F4F22E030E00E940E018A8190E044
:1002A000982F88272981820F911D2296E4E00C94D3
:1002B000AB12A1E0B0E0EFE5F1E00C948F128E01FB
:1002C0000F5F1F4F21E030E00E940E0189812196CF
:1002D000E4E00C94AB12A4E0B0E0E1E7F1E00C94B0
:1002E0008F1209831A832B833C838E010F5F1F4F6C
:1002F00024E030E00E9400012496E4E00C94AB126C
:100300000F931F9300E010E0980140E050E064E09C
:1003100070E087E090E00E946B011F910F910895BB
:100320000F931F9300E010E0980140E050E068E474
:1003300070E087E090E00E946B0100E010E098011F
:1003400040E050E060E070E087E090E00E946B01E8
:100350001F910F910895A2E0B0E0E1EBF1E00C9461
:100360008F1229833A838E010F5F1F4F22E030E006
:100370000E9400012296E4E00C94AB12CF93DF932D
:10038000EC0121E030E040E050E068E070E08BE01C
:1003900090E00E94AB019E0140E050E064E070E01C
:1003A0008BE090E00E94AB0122E030E040E050E0C2
:1003B00068E070E08BE090E00E94AB0140E050E02C
:1003C00060E170E08BE090E00E941B01DF91CF9133
:1003D000089520E032E040E050E064E070E081E128
:1003E00090E00E94AB01089522E238E140E050E045
:1003F00064E070E081E190E00E94AB010895A1E02B
:10040000B0E0E5E0F2E00C948F1229838E010F5FDB
:100410001F4F21E030E00E9400012196E4E00C949F
:10042000AB12A8E0B0E0E7E1F2E00C948B12098394
:100430001A832B833C83CD82DE82EF82F88623E011
:10044000E22E20E8F22E8E010F5F1F4F28E030E0F1
:100450000E9479002896E8E00C94A712CF92DF92D0
:10046000EF92FF920F931F93853031F490E4C92EE1
:10047000D12CE12CF12C08C0893091F480E4C82EF5
:1004800080E2D82EE12CF12C0FEF1FED20E030E0C0
:1004900040E050E068E070E08BE090E00E941102E4
:1004A0001F910F91FF90EF90DF90CF9008958F9262
:1004B0009F92AF92BF92CF92DF92EF92FF920F93F3
:1004C0001F93CF934B015C01C42FC12C28E0D22E87
:1004D00076010FEF1FEF980140E050E068E470E014
:1004E00087E090E00E94110230E6C32ED12C760105
:1004F0000FEF1FEF980140E050E068E470E087E004
:1005000090E00E94110285E088169104A104B104D4
:1005100039F4C12C9CE3D92EE12C92E0F92E06C0CF
:10052000C12C8CE1D82EE12C82E0F82E0FEF1FEFCA
:10053000980140E050E060E070E087E090E00E94C9
:100540001102CC2361F000E011E121E031E040E054
:1005500050E064E170E087E090E00E946B01CF9191
:100560001F910F91FF90EF90DF90CF90BF90AF90D1
:100570009F908F900895CF92DF92EF92FF920F930A
:100580001F93653071058105910539F4C12C9CE3F9
:10059000D92EE12C92E0F92E0BC06930710581054E
:1005A000910589F4C12C8CE1D82EE12C82E0F82E43
:1005B0000FEF1FEF980140E050E064E070E087E04B
:1005C00090E00E9411021F910F91FF90EF90DF9039
:1005D000CF900895A4E0B0E0E0EFF2E00C948D122B
:1005E00029833A830B831C8322E0E22E20E8F22E3B
:1005F0008E010F5F1F4F24E030E00E9479002496A7
:10060000E6E00C94A9120F931F9300E811E02FEF7E
:100610003FEF40E050E068E070E08BE090E00E9447
:10062000EA020091C80210E020EE3FEF40E050E007
:100630006FE170E081E190E00E94EA021F910F916A
:100640000895A2E0B0E0E7E2F3E00C948D12298374
:100650000A83EE24E39420E8F22E8E010F5F1F4FF1
:1006600022E030E00E9479002296E6E00C94A91284
:10067000CF92DF92EF92FF920F931F93813039F464
:100680000E94E90101E02FEF41E050E049C08230D3
:1006900041F503E02FEF40E050E064E070E081E1DD
:1006A00090E00E942103C12CD12C90E8E92EF12C7E
:1006B0000FEF1EEF20E030E040E050E068E070E037
:1006C00081E190E00E94110200E02FE742E050E05B
:1006D00068E070E081E190E00E9421030E94E9015E
:1006E00025C001E02FEF40E050E064E070E081E1E0
:1006F00090E00E942103C12CD12C80E8E82EF12C3F
:100700000FEF1EEF20E030E040E050E068E070E0E6
:1007100081E190E00E94110200E02FE742E050E00A
:1007200068E070E081E190E00E9421031F910F9149
:10073000FF90EF90DF90CF9008950F931F93CF938A
:10074000C82F40E050E060E070E085E090E00E945B
:100750001B018B019C01007C1F70207EC0FD24606A
:10076000C1FD1069C2FD026140E050E060E070E050
:1007700085E090E00E946B01CF911F910F91089549
:1007800040E050E060E070E0CB010E941B01089562
:10079000ACE0B0E0EEECF3E00C948312853071F144
:1007A00085EB9FEAA2E0B0E089879A87AB87BC8798
:1007B0008D839E83AF83B8878DE79FEAA2E0B0E088
:1007C00089839A83AB83BC833EE3C32E3FEAD32E57
:1007D00032E0E32EF12C4EEF842E45EA942E42E0D7
:1007E000A42EB12C56E3452E5CEA552E52E0652E20
:1007F000712C0EEF18EA22E030E031C085EF9FEC5B
:10080000A1E0B0E089879A87AB87BC8785EB9FEC36
:10081000A1E0B0E08D839E83AF83B88786E39FEC31
:10082000A1E0B0E089839A83AB83BC838EE7C82EB6
:1008300087ECD82EEE24E394F12C9EEB892E96ECD7
:10084000992EAA24A394B12C2EE3422E24EC522EEE
:1008500066246394712C0DEF10EC21E030E040E051
:1008600050E068E370E083E090E00E946B01930148
:10087000820140E050E06CE370E083E090E00E9491
:100880006B019501840140E050E060E470E083E09A
:1008900090E00E946B019701860140E050E064E423
:1008A00070E083E090E00E946B0109811A812B8146
:1008B0003C8140E050E068E470E083E090E00E941A
:1008C0006B010D811E812F81388540E050E06CE482
:1008D00070E083E090E00E946B0109851A852B850A
:1008E0003C8540E050E060E570E083E090E00E94ED
:1008F0006B0100E412E020E030E140E050E06CE108
:1009000070E083E090E00E946B0109E814EA2DE6B4
:100910003BE140E050E060E270E083E090E00E9464
:100920006B012C96E0E10C949F120F931F93CF93D1
:10093000DF9301E010E022E030E040E050E06CE0C6
:1009400070E084E090E00E946B0100E12FEF40E056
:1009500050E06CE070E084E090E00E942103C3E08E
:1009600084E10E94EA0F40E050E060E270E084E041
:1009700090E00E945901813059F480E591E00E9495
:1009800095108FE592E00E949510C0E0D0E008C07D
:10099000C15031F783E891E00E949510CFEFDFEF6F
:1009A00020E040E050E06CE070E084E090E00E94E5
:1009B000FF0121E040E050E060E270E084E090E080
:1009C0000E94FF0101E02FEF42E050E06CE070E098
:1009D00084E090E00E94210340E050E064E170E098
:1009E00084E090E00E941B016F3F7F4F8F4F9F413B
:1009F00051F483E691E00E9495108FE592E00E9409
:100A00009510CFEFDFEF40E050E06CE170E084E064
:100A100090E00E941B016F3F7F4F8F4F9F4151F429
:100A200083E791E00E9495108FE592E00E94951077
:100A3000CFEFDFEFCE01DF91CF911F910F9108959E
:100A4000CF92DF92EF92FF920F931F93CF93C82F15
:100A50008130A9F440E050E068E470E087E090E085
:100A60000E9441016C0105E011E02FEF3FEF40E0F3
:100A700050E068E470E087E090E00E94EA020E94A3
:100A800095047C01C13059F400E010E0960140E08B
:100A900050E068E470E087E090E00E94EA02C7015D
:100AA0009927CF911F910F91FF90EF90DF90CF90FA
:100AB00008959C0140E050E060E070E08EE090E03E
:100AC0000E94AB0108959C0140E050E064E070E0BA
:100AD00081E090E00E94AB010895A0E0B0E0E3E780
:100AE000F5E00C948B129A01280F391F2115344020
:100AF00088F5EA016B017C014038510538F48B011F
:100B00009C0160E070E084E190E01FC004E110E02F
:100B100020E030E040E050E064E070E08FE190E001
:100B20000E946B018E0120E030E040E050E068E080
:100B300070E08FE190E00E946B018601970140E038
:100B400050E060E070E08DE190E00E94000180E004
:100B500090E002C08FEF9FEFCDB7DEB7E8E00C94D6
:100B6000A712CF92DF92EF92FF920F931F938B0108
:100B700050E060E070E06C01E12CF12C00381105D0
:100B800010F52BE0440F551F661F771F2A95D1F7EC
:100B90004C295D296E297F296801E12CF12C760111
:100BA000DD24CC24C42AD52AE62AF72A00E014EF53
:100BB00020E03CEF40E050E064E270E080E090E054
:100BC0000E9411022CC000581F4F20E030E0980115
:100BD000112700279BE0440F551F661F771F9A952A
:100BE000D1F74C295D296E297F2968017901C42A32
:100BF000D52AE62AF72A00E014EF20E03CEF40E097
:100C000050E064E270E080E090E00E94110240E079
:100C100050E060E070E088E090E00E9459011F9190
:100C20000F91FF90EF90DF90CF900895282F41E033
:100C300050E068E270E080E090E00E94FF010895DB
:100C4000A0E0B0E0E6E2F6E00C948512EC017880DA
:100C50008C81893138F481E09B81993108F480E0FE
:100C6000682E02C0662463942F81213011F010E0B9
:100C700001C010E1E981E150E73040F4F0E0EE0F0F
:100C8000FF1FE752FE4F8080918003C0812C992482
:100C900093948091D0029091D1028F719093D10260
:100CA0008093D0022093CC028C858E5F21E030E0CF
:100CB000590102C0AA0CBB1C8A95E2F7C501A0E04D
:100CC000B0E0BC01CD01F3E0660F771F881F991FCC
:100CD000FA95D1F70E944E1126E636E646E65FE326
:100CE0000E9405120E9418117093D3026093D202E1
:100CF0008B858093D502C884D12CE12CF12CA5E002
:100D0000CC0CDD1CEE1CFF1CAA95D1F720E2C22200
:100D1000DD24EE24FF248D85E82A8B858B7090E0FE
:100D2000982F88279295907FA0E0B0E0C82AD92A12
:100D3000EA2AFB2AC12A0FEC1FE42CEF3FEF40E028
:100D400050E060E170E080E090E00E9411026620D7
:100D500009F446C08091D0029091D10280669093B0
:100D6000D1028093D002C12CECE0DE2EE12CF12CDC
:100D70000FEF17EE20E030E040E050E068E070E078
:100D80008BE090E00E94110206E013E020E030E0EA
:100D900040E050E06CE070E08EE090E00E946B017B
:100DA00000E010E0980140E050E06EE070E0CB0120
:100DB0000E946B010AE01AE52CE030E040E050E0D0
:100DC00062E170E08EE090E00E946B012DE740E070
:100DD00050E066E170E08EE090E00E94FF0185C087
:100DE0008B85882309F45CC08D85EC85F0E0EE0FDF
:100DF000FF1FE951FE4F823010F520813181A0E5BF
:100E0000BBE00E9472128B019C0157E0369527953A
:100E1000179507955A95D1F7DC01CB0162E1B6959C
:100E2000A795979587956A95D1F717701C5F01155F
:100E3000184018F00196A11DB11D8C011DC08081C4
:100E40009181A0E0B0E034E0880F991FAA1FBB1F7A
:100E50003A95D1F78C019D014BE036952795179572
:100E600007954A95D1F797709C5F8115984020F0BF
:100E70000F5F1F4F2F4F3F4FC50123E0880F991F72
:100E80002A95E1F7880E991E0F77112720E83FEF8A
:100E900042E050E062E170E08EE090E00E94EA0201
:100EA0008FEF8816910481F07CF08091D0029091B0
:100EB000D10280629093D1028093D002C12C84E051
:100EC000D82EE12CF12C05C0C12C04E1D02EE12C50
:100ED000F12C0FEF17EE20E030E040E050E068E04A
:100EE00070E08BE090E00E9411020A812CEF40E05C
:100EF00050E060E070E086E090E00E9421032FEF78
:100F00002A0D40E050E060E070E082E090E00E9456
:100F1000FF018981873011F488E001C080E00E94E0
:100F200016068B858370833029F40CEC15E32FE5CE
:100F30003FEA04C00CE418E52FE53FEA40E050E04A
:100F40006CE070E086E090E00E946B0140E050E0D1
:100F500064E170E081E090E00E941B01AB01BC0104
:100F60004427507E6627772729E0721201C041602E
:100F70000C8110E020E030E0322F212F102F0027CD
:100F800000271F71222733278B8190E0A0E0B0E07B
:100F9000E3E0880F991FAA1FBB1FEA95D1F7992795
:100FA000AA27BB27082B192B2A2B3B2B8D8190E0DE
:100FB000A0E0B0E0880F991FAA1FBB1F8670992779
:100FC000AA27BB27082B192B2A2B3B2B042B152BCD
:100FD000262B372B40E050E064E170E081E090E0A8
:100FE0000E946B01CE80D12CE12CF12CAAE0CC0C1C
:100FF000DD1CEE1CFF1CAA95D1F7898190E0A0E0D2
:10100000B0E01CE0880F991FAA1FBB1F1A95D1F7EB
:10101000C82AD92AEA2AFB2A0FEF1BE020E030E099
:1010200040E050E064E270E080E090E00E94110255
:1010300089859A85892B21F481E890E09A878987B0
:1010400029853A8542E050E060E070E086E090E07B
:101050000E94AB0149E0741223C004E310E021E0D8
:101060003CE140E050E06CE170E087E090E00E94FD
:101070006B012CE33FE040E050E060E070E089E08D
:1010800090E00E94AB0103E318EA25EB38E040E072
:1010900050E060E170E087E090E00E946B0116C0D4
:1010A00004E311E127E03CE140E050E06CE170E056
:1010B00087E090E00E946B012CE33FE140E050E0CC
:1010C00060E070E089E090E00E94AB0124E141E043
:1010D00050E060E570E087E090E00E94FF012EE0C4
:1010E00042E050E068E170E087E090E00E94FF019C
:1010F00021E840E050E068E070E089E090E00E9484
:10110000FF0102E010E020E030E040E050E064E465
:1011100070E080E090E00E946B0181E00E94380363
:1011200016E084E10E94EA0F40E050E064E470E0E1
:1011300080E090E00E94590181FF0DC081E991E0BB
:101140000E9495108FE592E00E9495108C81895045
:10115000803170F025C0115021F781EA91E00E94A2
:1011600095108FE592E00E9495108FEF9FEF25C0BC
:101170008091C902813021F4872D0E942E0203C084
:10118000872D0E94C80300E014E62FEF31E840E00D
:1011900050E068E170E083E090E00E94EA020AC05B
:1011A00000E02EEF40E050E068E170E083E090E086
:1011B0000E94210381E00E942005CDB7DEB7EEE05A
:1011C0000C94A112A0E0B0E0E8EEF8E00C948B12D1
:1011D0006C017B018091CF02833029F060E070E0E8
:1011E00082E190E004C060E070E083E190E09A0169
:1011F0002E0D3F1D2115344038F5EA0140385105C8
:1012000018F4860197011EC08C012227332740E085
:1012100050E064E070E08FE190E00E946B018E018D
:1012200020E030E040E050E068E070E08FE190E0E6
:101230000E946B018601970140E050E060E070E0A1
:101240008DE190E00E940E01CDB7DEB7E8E00C948E
:10125000A7120F931F938C0125E030E040E050E08F
:1012600064E770E080E090E00E940E011F910F9112
:1012700008950F931F938C018091CF0225E030E0F9
:10128000813049F0833071F444E050E060E070E078
:101290008EE190E00DC040E050E064E070E088E155
:1012A00090E006C040E050E064E670E080E090E04E
:1012B0000E940E011F910F91089520E030E040E060
:1012C00050E060E070E08AE090E00E94AB0120E036
:1012D00040E050E064E170E08AE090E00E94FF01AD
:1012E00020E040E050E064E070E08AE090E00E949E
:1012F000FF0122E040E050E064E070E08AE090E02E
:101300000E94FF010895CF92DF92EF92FF920E9418
:10131000C0036B017C01FF92EF92DF926F9383EB2E
:1013200091E09F938F930E940113E894C4F881E0A9
:1013300090E00F900F900F900F900F900F9022E081
:10134000C21623E0D2062AECE2062EEDF20611F4D4
:1013500080E090E0919581959109FF90EF90DF906A
:10136000CF9008958F929F92AF92BF92CF92DF92CB
:10137000EF92FF920F931F93CF93C82F1092CF023B
:1013800082E090E09093D1028093D0021092D40238
:101390001092D5021092CA021092CB021092E30270
:1013A0001092E2021092E5021092E4021092E7021B
:1013B0001092E6021092E9021092E8021092ED02F9
:1013C0001092EC021092EB021092EA020E94830942
:1013D0008C01892B09F088C084E090E00E94BE0156
:1013E0004B015C0185E090E00E94BE016B017C0135
:1013F0008AE090E00E94BE018F718093C802892824
:101400008A288B2839F0CD28CE28CF2819F08111D1
:101410000E94030380E290E00E94BE0160347240AB
:101420008105904121F481E08093C90202C01092AD
:10143000C902C4FD0CC086E090E00E94BE0160932A
:10144000C0027093C1028093C2029093C302C5FD93
:101450000CC087E090E00E94BE016093C4027093CC
:10146000C5028093C6029093C702C6FD06C088E0FD
:1014700090E00E94BE016093CA02C7FD06C089E0E9
:1014800090E00E94BE016093CB028091CB0281115B
:1014900003C085E88093CB028091CA02811103C00A
:1014A00084E78093CA028FE190E00E94BE016093BE
:1014B000CD028EE190E00E94BE016F7719F060933B
:1014C000CE0207C08EE28093CE0284EC91E00E94AF
:1014D00017132091CE0240E050E064E170E089E013
:1014E00090E00E94FF0102C00FEF1FEFC801CF91F3
:1014F0001F910F91FF90EF90DF90CF90BF90AF9032
:101500009F908F900895CF92DF92EF92FF920F936A
:101510001F936B017C0140E050E068E070E081E0E7
:1015200090E00E941B01DC01CB0188279927A07F56
:10153000970186012F703327082B192B2A2B3B2B61
:1015400040E050E068E070E081E090E00E946B01D4
:101550001F910F91FF90EF90DF90CF90089542E0A0
:1015600050E064E470E080E090E00E944101892F47
:1015700081700895A0E0B0E0E0ECFAE00C948B12EA
:10158000C82F80FF46C080E4C82E82E0D82EE12C10
:10159000F12C0FE310EF20E030E040E050E060E09D
:1015A00070E085E090E00E941102C12CD12C94E8FB
:1015B000E92EF12C0FEF1FEF980140E050E064E0BE
:1015C00070E081E190E00E941102DC2FD270C1FF37
:1015D00005C000E111E02FE030E004C000E111E0BF
:1015E00020E030E040E050E066E170E081E190E032
:1015F0000E946B01DD2341F100E111E020E030E0C9
:1016000040E050E066E170E081E190E00E946B0113
:101610001BC0C12CD12C76010FE310EF20E030E08D
:1016200040E050E060E070E085E090E00E94110250
:1016300000E010E02FEF3EEF40E050E066E170E0A8
:1016400081E190E00E94EA02CDB7DEB7E8E00C94B9
:10165000A7120F931F938B019C0140E050E06CE2B6
:1016600070E080E090E00E946B011F910F9108955F
:101670000F931F93982F927080FD06C0282F28701B
:10168000382F3C7199F46AC000E010E020E030E0AF
:1016900040E050E0992329F06DE070E080E090E0B8
:1016A00036C063E070E080E090E031C000E010E020
:1016B000222381F020E030E040E050E0992329F03F
:1016C0006FE070E080E090E022C067E070E080E0D2
:1016D00090E01DC020E030E040E050E084FF0CC00E
:1016E000992329F06EE070E080E090E010C065E0A2
:1016F00070E080E090E00BC0992329F060E170E099
:1017000080E090E004C069E070E080E090E00E943A
:10171000000143E050E064E470E080E090E00E946B
:10172000590183FD0DC040E050E060E370E08FE0C0
:1017300090E00E941B01611571058D40910579F5BE
:1017400000E010E020E030E040E050E060E070E0D9
:10175000CB010E9400018FEF9FEF23C000E010E05B
:1017600020E030E040E050E085FF0CC0992329F0F4
:1017700061E170E080E090E010C06BE070E080E03C
:1017800090E00BC0992329F06CE070E080E090E0DD
:1017900004C061E070E080E090E00E94000180E021
:1017A00090E01F910F9108950F931F938B019C015F
:1017B000672B682B692B69F040E050E064E370E030
:1017C00080E090E00E946B0100E012E02FEF3FEF1D
:1017D00004C000E010E02FEF3DEF40E050E060E19A
:1017E00070E080E090E00E94EA021F910F9108955E
:1017F0009C0140E050E064E070E086E090E00E94F0
:10180000AB0108950F930E945D0981E00E94E30FF0
:1018100003E02FEF40E050E064E070E081E190E011
:101820000E94210320E040E050E060E070E081E1B0
:1018300090E00E94FF0181E00E94E30FE0ECF2E003
:1018400081E08787118A108A0F910895CF92DF92E5
:10185000EF92FF920F93CF93DF93EC01C62E0E947D
:10186000F401D12CE12CF12C40E0C701B6010E941B
:101870005702C701B6010E94BB029E013F7040E0C3
:1018800050E06CE170E088E090E00E94AB0103E082
:101890002FEF40E050E060E170E088E090E00E94CF
:1018A000210340E050E060E170E088E090E00E94B9
:1018B000590180FDF6CF0E9480010E9490010E9494
:1018C000E90140E050E06CE170E087E090E00E94C8
:1018D00059018F73DF91CF910F91FF90EF90DF90BF
:1018E000CF9008950F931F93CF93DF93EC018D81D9
:1018F0009E81892B51F4288140E050E06CE170E03A
:1019000087E090E00E94FF0111C040E050E064E1F8
:1019100070E081E090E00E94590180FF02C069E020
:1019200001C065E08D819E810E94260C09811A818B
:101930002B813C8140E050E06CE070E081E090E081
:101940000E946B01DF91CF911F910F910895EF924B
:10195000FF920F931F93CF93DF930E946E100E940C
:10196000020C62E070E080E090E00E94F20E0E94C3
:10197000AF0A811103C085EF91E013C080E00E949F
:10198000B209019619F483E092E00BC083E00E9453
:10199000BA0A8DE291E00E942006892B59F081E17C
:1019A00092E00E94951080E090E0CDB7DEB7E6E0CF
:1019B0000C94A9120E94721081E292E00E9495108C
:1019C00082E692E00E9495108BE391E00E94720CF7
:1019D00081E090E40E94590581E090E40E94630553
:1019E0006CEB72E080E090E00E94830A6CE271E0B0
:1019F00080E090E00E94D40B85E090E00E94F80B1C
:101A000083E00E949D0383EBE82E82E0F82E809114
:101A10001E038093250140E050E063E271E08AE01C
:101A200090E00E946D0541E060E070E08CE090E0A5
:101A30000E94B10582E00E94380B40E050E064E46F
:101A400070E080E090E00E941B01609306037093B9
:101A500007038093080390930903DC01CB018827D7
:101A6000907DA772B472892B8A2B8B2B31F38091D6
:101A70001E038F5F80931E0389E792E00E94171375
:101A80008091060390910703A0910803B091090388
:101A900096FF06C100E810E420E030E040E050E0AE
:101AA00064E470E080E090E00E946B0140E050E070
:101AB0006CE470E080E090E00E941B017370882766
:101AC0009927653171058105910530F440E050E0BA
:101AD0008AE093E00E94E20884E992E00E941713F2
:101AE00010920C034AE050E066E171E08AE093E076
:101AF0000E94F412892B09F0DFC00E94630E20932C
:101B0000FE023093FF024093000350930103609361
:101B100002037093030380930403909305030E94D0
:101B20008F0E2093F6023093F7024093F802509301
:101B3000F9026093FA027093FB028093FC02909387
:101B4000FD02285E3E4745455D4F6F4F7F4F8F4FEB
:101B50009F4F08E00E94D312C22F032F142FD52FBE
:101B6000622F702F812F9D2F0E94290B2C2F2E7FEB
:101B7000302F412F5D2F60E070E080E090E008E0C2
:101B80000E94B8122F5F3F4B4F4F5F4F6F4F7F4FF9
:101B90008F4F9F4F2093EE023093EF024093F0025D
:101BA0005093F1026093F2027093F3028093F40277
:101BB0009093F5020091FE021091FF022091000324
:101BC000309101034091020350910303609104039B
:101BD000709105038AE091E00E94BB0E0091F6022D
:101BE0001091F7022091F8023091F9024091FA0227
:101BF0005091FB026091FC027091FD028EE091E039
:101C00000E94BB0E0091EE021091EF022091F002B3
:101C10003091F1024091F2025091F3026091F4028E
:101C20007091F50282E191E00E94BB0E80911E034B
:101C30008093020140E050E060E071E086E190E0D6
:101C40000E946D0541E060E070E088E190E00E9454
:101C5000B10581E00E94380B81112EC0FF92EF92F6
:101C60000E9401130F900F9040E050E064E470E098
:101C700080E090E00E941B0167FFF6CF00E810E0D3
:101C800020E030E040E050E064E470E080E090E08C
:101C90000E946B0180911E038F5F80931E030CC016
:101CA00000E810E927E234E240E050E064E470E04C
:101CB00080E090E00E946B0168EE73E080E090E0CD
:101CC0000E94F20EA4CEEF92FF920F93CF93DF9378
:101CD00000D000D01F92CDB7DEB7CE0101967C01B7
:101CE0000E942909FE01369620E030E040E050E0F5
:101CF00060E070E080E090E008E00E94B812A291FD
:101D00002A2BEE15FF05C1F70F900F900F900F9043
:101D10000F90DF91CF910F91FF90EF900895EF9288
:101D2000FF920F93CF93DF9300D000D01F92CDB7D7
:101D3000DEB7CE0101967C010E943909FE0136967C
:101D400020E030E040E050E060E070E080E090E0D3
:101D500008E00E94B812A2912A2BEE15FF05C1F7E8
:101D60000F900F900F900F900F90DF91CF910F91E8
:101D7000FF90EF900895A0E0B0E0E1ECFEE00C945D
:101D80008B12D22FC32FB42FA52F6B01FC017C0126
:101D900084E0E80EF11C019398014D2F5C2F6B2F0E
:101DA0007A2FC60108E00E94D3128901D42FC52FD3
:101DB000B62FA72F6C01EE15FF0569F7CDB7DEB77B
:101DC000E8E00C94A7120E947E1061E070E080E0D1
:101DD00090E00E94400F0E94F10F0E94A70C80E04B
:101DE00090E008958F929F92AF92BF92CF92DF9230
:101DF000EF92FF920E944E114B015C0120E030E017
:101E00004AE755E40E9405126B017C0120E030E0B6
:101E100040E85FE30E94A11087FD24C020E03FEF6F
:101E20004FE757E4C701B6010E9400121816ACF440
:101E300020E030E040E251E4C501B4010E94051207
:101E40000E941F1120E931E06115710581F0C9017F
:101E50000197F1F761507109F7CFC701B6010E94F0
:101E60001F1102C061E070E0CB010197F1F7FF9014
:101E7000EF90DF90CF90BF90AF909F908F9008959C
:101E80004F925F926F927F928F929F92AF92BF928A
:101E9000CF92DF92EF92FF92CF930E944E114B01AF
:101EA0005C012BEA3AEA4AEA50E40E9405126B010F
:101EB0007C0120E030E040E85FE30E94A11087FD54
:101EC0006FC020E030E040E850E4C501B4010E945A
:101ED00005122B013C0120E03FEF4FE757E40E9441
:101EE000001218160CF044C020E030E04AE754E439
:101EF000C501B4010E94A6104B015C0120E030E056
:101F00004AE755E40E9405126B017C0120E030E0B5
:101F100040E85FE30E94A11087FD24C020E03FEF6E
:101F20004FE757E4C701B6010E9400121816ACF43F
:101F300020E030E040E251E4C501B4010E94051206
:101F40000E941F1120E931E06115710551F1C901AD
:101F50000197F1F761507109F7CFC701B6010E94EF
:101F60001F1102C061E070E0CB010197F1F719C0C9
:101F700020E030E04FE753E4C701B6010E940012B1
:101F8000181644F4C301B2010E941F11CB0101973E
:101F9000F1F709C0C701B6010E941F11C62F01C089
:101FA000C1E0CA95F1F780E090E0CF91FF90EF900B
:101FB000DF90CF90BF90AF909F908F907F906F9069
:101FC0005F904F900895682F70E080E090E00E944D
:101FD000F20E0895682F70E080E090E00E94400FBC
:101FE00008958CE284B9249880E58CBD8CB58F7DF2
:101FF0008CBD08952A9808952A9A08958EBD61E0AF
:1020000070E080E090E00E94400F0DB407FEFDCF2D
:102010008EB590E00895A0E0B0E0E1E1F0E10C942D
:1020200089127C015B018A0169010E94FA0FE501B6
:10203000EA0CFB1CCE15DF0529F0899190E00E9487
:10204000FE0FF8CFE6010C0D1D1DC017D10731F0B2
:1020500080E090E00E94FE0F8993F7CF65E070E08A
:1020600080E090E00E94400F0E94FC0F80E090E032
:10207000CDB7DEB7EAE00C94A512A0E0B0E0E3E44F
:10208000F0E10C9489127C015B018A0169010E94D4
:10209000FA0FE501EA0CFB1CCE15DF0529F089914A
:1020A00090E00E94FE0FF8CFE6010C0D1D1DC01739
:1020B000D10729F0899190E00E94FE0FF8CF65E0EA
:1020C00070E080E090E00E94400F0E94FC0F80E0F2
:1020D00090E0CDB7DEB7EAE00C94A5128DB58E7F07
:1020E0008DBD08958DB581608DBD08959091C0001E
:1020F00095FFFCCF8093C600000008951092C500A4
:1021000087E68093C400E0ECF0E080818D7F8083DF
:1021100086E08093C20088E18093C10082E491E070
:1021200090932203809321030895CF93DF93EC01D2
:102130008991882319F00E947610FACFDF91CF9110
:1021400008950E948B1108F481E008950E94BA104E
:102150000C94C6110E94BF1158F00E94B81140F0B3
:1021600029F45F3F29F00C94AF1151110C94FA112E
:102170000C94B5110E94D71168F39923B1F355233C
:1021800091F3951B550BBB27AA276217730784078A
:1021900038F09F5F5F4F220F331F441FAA1FA9F320
:1021A00035D00E2E3AF0E0E832D091505040E6950E
:1021B000001CCAF72BD0FE2F29D0660F771F881F6F
:1021C000BB1F261737074807AB07B0E809F0BB0B62
:1021D000802DBF01FF2793585F4F3AF09E3F510576
:1021E00078F00C94AF110C94FA115F3FE4F3983E31
:1021F000D4F3869577956795B795F7959F5FC9F75F
:10220000880F911D9695879597F90895E1E0660FDF
:10221000771F881FBB1F621773078407BA0720F058
:10222000621B730B840BBA0BEE1F88F7E0950895C1
:102230000E941F116894B1110C94FA1108950E9424
:10224000DF1188F09F5798F0B92F9927B751B0F058
:10225000E1F0660F771F881F991F1AF0BA95C9F72A
:1022600014C0B13091F00E94F911B1E008950C94BE
:10227000F911672F782F8827B85F39F0B93FCCF371
:10228000869577956795B395D9F73EF490958095A7
:10229000709561957F4F8F4F9F4F0895E89409C0C7
:1022A00097FB3EF490958095709561957F4F8F4F89
:1022B0009F4F9923A9F0F92F96E9BB279395F6959F
:1022C000879577956795B795F111F8CFFAF4BB0F1D
:1022D00011F460FF1BC06F5F7F4F8F4F9F4F16C081
:1022E000882311F096E911C0772321F09EE8872F0B
:1022F000762F05C0662371F096E8862F70E060E0C7
:102300002AF09A95660F771F881FDAF7880F96953F
:10231000879597F90895990F0008550FAA0BE0E8E3
:10232000FEEF16161706E807F907C0F01216130697
:10233000E407F50798F0621B730B840B950B39F4D7
:102340000A2661F0232B242B252B21F408950A263D
:1023500009F4A140A6958FEF811D811D089597F97D
:102360009F6780E870E060E008959FEF80EC08953B
:1023700000240A9416161706180609060895002464
:102380000A9412161306140605060895092E0394DE
:10239000000C11F4882352F0BB0F40F4BF2B11F452
:1023A00060FF04C06F5F7F4F8F4F9F4F089557FDB1
:1023B0009058440F551F59F05F3F71F04795880FB3
:1023C00097FB991F61F09F3F79F08795089512164A
:1023D00013061406551FF2CF4695F1DF08C01616F6
:1023E00017061806991FF1CF8695710561050894A7
:1023F0000895E894BB2766277727CB0197F90895BE
:102400000E948B1108F48FEF08950E9418120C940B
:10241000C6110E94B81138F00E94BF1120F0952318
:1024200011F00C94AF110C94B51111240C94FA1105
:102430000E94D71170F3959FC1F3950F50E0551F7F
:10244000629FF001729FBB27F00DB11D639FAA2709
:10245000F00DB11DAA1F649F6627B00DA11D661F58
:10246000829F2227B00DA11D621F739FB00DA11D79
:10247000621F839FA00D611D221F749F3327A00D33
:10248000611D231F849F600D211D822F762F6A2FCF
:1024900011249F5750409AF0F1F088234AF0EE0F34
:1024A000FF1FBB1F661F771F881F91505040A9F761
:1024B0009E3F510580F00C94AF110C94FA115F3FD0
:1024C000E4F3983ED4F3869577956795B795F7959D
:1024D000E7959F5FC1F7FE2B880F911D9695879515
:1024E00097F90895A29FB001B39FC001A39F700DFB
:1024F000811D1124911DB29F700D811D1124911D0C
:1025000008952F923F924F925F926F927F928F9297
:102510009F92AF92BF92CF92DF92EF92FF920F9372
:102520001F93CF93DF93CDB7DEB7CA1BDB0B0FB67C
:10253000F894DEBF0FBECDBF09942A883988488839
:102540005F846E847D848C849B84AA84B984C884CF
:10255000DF80EE80FD800C811B81AA81B981CE0FC6
:10256000D11D0FB6F894DEBF0FBECDBFED010895AB
:102570000F93083090F0982F872F762F652F542FC8
:10258000432F322F22270850F4CF220F331F441F2E
:10259000551F661F771F881F991F0A95B2F70F9165
:1025A000089597FB10F8169400080F93083098F0E0
:1025B0000850232F342F452F562F672F782F892F20
:1025C000902DF4CF059497958795779567955795B6
:1025D0004795379527950A95AAF70F91089581E0B9
:1025E00090E0F8940C94D815FB01DC0104C08D91A7
:1025F0000190801921F441505040C8F7881B990B75
:102600000895A0E0B0E0E7E0F3E10C949112AE0190
:102610004B5F5F4FFA0161917191AF01809121038E
:10262000909122030E944713E2E00C94AD120F93A5
:102630001F93CF93DF93E0912103F0912203238135
:1026400021FF1BC08C01D0E0C0E0F80181918F0117
:102650006091210370912203DB011896ED91FC91AA
:102660001997882331F00995892B79F3DFEFCFEFA4
:10267000ECCF8AE00995892B19F08FEF9FEF02C00C
:102680008D2F9C2FDF91CF911F910F910895ABE07B
:10269000B0E0EDE4F3E10C9481126C017B018A015E
:1026A000FC0117821682838181FFCCC1CE01019685
:1026B0003C01F6019381F70193FD859193FF819190
:1026C0007F01882309F4BAC1853239F493FD8591DD
:1026D00093FF81917F01853229F4B60190E00E9439
:1026E0003E15E7CF912C212C312CFFE1F315D8F0CA
:1026F0008B3279F038F4803279F08332A1F4232DD3
:1027000020611DC08D3261F0803369F4232D21607A
:1027100016C0832D8260382EE32DE4603E2E2AC041
:10272000F32DF8601DC037FC2DC020ED280F2A3096
:1027300040F08E32B9F436FC81C1232D2064322E54
:1027400019C036FE06C08AE0989E200D1124922EF4
:1027500011C0EAE02E9E200D1124222EF32DF062EE
:102760003F2E08C08C3621F4832D8068382E02C09D
:10277000883641F4F70193FD859193FF81917F01A4
:102780008111B3CF982F9F7D9554933028F40C5F1F
:102790001F4F9FE399830DC0833631F0833771F06B
:1027A000833509F059C021C0F801808189830E5F0B
:1027B0001F4F88248394912C530113C02801F2E009
:1027C0004F0E511CF801A080B18036FE03C0692D68
:1027D00070E002C06FEF7FEFC5010E9433154C011E
:1027E0008201F32DFF773F2E16C0280122E0420E12
:1027F000511CF801A080B18036FE03C0692D70E045
:1028000002C06FEF7FEFC5010E9428154C01F32D28
:10281000F0683F2E820133FC1BC0822D90E08816A9
:102820009906B0F4B60180E290E00E943E152A9429
:10283000F4CFF50137FC859137FE81915F01B60138
:1028400090E00E943E1521102A9421E0821A9108FE
:102850008114910471F7E8C0843611F0893641F58E
:10286000F80137FE07C060817181828193810C5F1E
:102870001F4F08C060817181072E000C880B990BD7
:102880000E5F1F4FF32DFF763F2E97FF09C09095E7
:102890008095709561957F4F8F4F9F4FF0683F2EC9
:1028A0002AE030E0A3010E947A15882E861845C0E0
:1028B000853731F4232D2F7EB22E2AE030E025C05B
:1028C000932D997FB92E8F36C1F018F4883579F0A1
:1028D000B5C0803719F0883721F0B0C0E92FE0612A
:1028E000BE2EB4FE0DC0FB2DF460BF2E09C034FE19
:1028F0000AC0292F2660B22E06C028E030E005C0AD
:1029000020E130E002C020E132E0F801B7FE07C06C
:1029100060817181828193810C5F1F4F06C060814D
:10292000718180E090E00E5F1F4FA3010E947A1535
:10293000882E8618FB2DFF773F2E36FE0DC0232DE7
:102940002E7FA22E891458F434FE0BC032FC09C02D
:10295000832D8E7EA82E05C0B82CA32C03C0B82CC6
:1029600001C0B92CA4FE0FC0FE01E80DF11D80814D
:10297000803321F49A2D997EA92E09C0A2FE06C0AB
:10298000B394B39404C08A2D867809F0B394A3FC61
:1029900011C0A0FE06C0B21488F4280C922C9B181B
:1029A0000EC0B21460F4B60180E290E00E943E15C1
:1029B000B394F7CFB21418F42B1802C0982C212C22
:1029C000A4FE10C0B60180E390E00E943E15A2FE76
:1029D00017C0A1FC03C088E790E002C088E590E042
:1029E000B6010CC08A2D867859F0A1FE02C08BE298
:1029F00001C080E2A7FC8DE2B60190E00E943E1586
:102A0000891438F4B60180E390E00E943E159A9450
:102A1000F7CF8A94F301E80DF11D8081B60190E0B3
:102A20000E943E158110F5CF222009F442CEB60156
:102A300080E290E00E943E152A94F6CFF60186814E
:102A4000978102C08FEF9FEF2B96E2E10C949D12CD
:102A5000FC010590615070400110D8F78095909569
:102A60008E0F9F1F0895FC0161507040019001106E
:102A7000D8F7809590958E0F9F1F08950F931F9301
:102A8000CF93DF93FB01238121FD03C08FEF9FEFE5
:102A90002CC022FF16C04681578124813581421700
:102AA000530744F4A081B1819D012F5F3F4F3183D3
:102AB00020838C93268137812F5F3F4F3783268376
:102AC00014C08B01EC01FB010084F185E02D099518
:102AD000892BE1F6D80116968D919C911797019656
:102AE00017969C938E931697CE01DF91CF911F91ED
:102AF0000F910895FA01AA27283051F1203181F170
:102B0000E8946F936E7F6E5F7F4F8F4F9F4FAF4FF5
:102B1000B1E03ED0B4E03CD0670F781F891F9A1F08
:102B2000A11D680F791F8A1F911DA11D6A0F711DBC
:102B3000811D911DA11D20D009F468943F912AE0C8
:102B4000269F11243019305D3193DEF6CF010895B0
:102B5000462F4770405D4193B3E00FD0C9F7F6CFE1
:102B6000462F4F70405D4A3318F0495D31FD4052A9
:102B7000419302D0A9F7EACFB4E0A695979587953F
:102B800077956795BA95C9F700976105710508951E
:102B90009B01AC010A2E06945795479537952795CA
:102BA000BA95C9F7620F731F841F951FA01D089562
:042BB000F894FFCFC7
:102BB400418800CADE57415645230000000000004A
:102BC400000000000000418800CADE56455741104D
:102BD400020000418800CADE574156452105050020
:102BE400090901010000810000010034FDFDFDFD23
:102BF4000000000000030000000076100000000048
:102C04005047462063616C20636F6D706C6574651A
:102C14002E2E0050474620492043414C2045525215
:102C24004F520050474620512043414C20455252B8
:102C34004F52005047462043414C204552524F5278
:102C440000504C4C206973206C6F636B65642E2EAE
:102C540000504C4C204C4F434B494E472045525258
:102C64004F52004445564943452049443A20256C77
:102C7400780D0A00585452494D204F545020524563
:102C84004144204641494C0D004000000100012010
:102C9400008000000148000004A8050008500B0053
:102CA40010A116002049444C45204641494C454456
:102CB4000D0A00494E4954204641494C45440D0AE9
:102CC40000434F4E464947204641494C45440D0A6E
:102CD40000434F4E475241545321212120436F6EEC
:102CE40066696720616E6420496E69742066756E3A
:102CF4006374696F6E7320636F6D706C65746520A7
:102D040077697468206E6F206572726F7273210D1B
:102D14000A005374617274696E67206D61696E2074
:102D24006C6F6F702E2E0D0A006672616D652073D4
:102D3400656E742066726F6D20696E697469617462
:102D44006F720D006672616D6520726563656976E8
:102D540065642066726F6D20526573706F6E646572
:102D6400720D004457545F53554343455353000079
:00000001FF
